{
  "contractName": "MetaAxPresale",
  "abi": [
    {
      "inputs": [
        {
          "internalType": "address payable",
          "name": "tokenAddr",
          "type": "address"
        }
      ],
      "stateMutability": "nonpayable",
      "type": "constructor"
    },
    {
      "anonymous": false,
      "inputs": [
        {
          "indexed": true,
          "internalType": "address",
          "name": "previousOwner",
          "type": "address"
        },
        {
          "indexed": true,
          "internalType": "address",
          "name": "newOwner",
          "type": "address"
        }
      ],
      "name": "OwnershipTransferred",
      "type": "event"
    },
    {
      "inputs": [],
      "name": "discountRate",
      "outputs": [
        {
          "internalType": "uint256",
          "name": "",
          "type": "uint256"
        }
      ],
      "stateMutability": "view",
      "type": "function"
    },
    {
      "inputs": [],
      "name": "endTime",
      "outputs": [
        {
          "internalType": "uint256",
          "name": "",
          "type": "uint256"
        }
      ],
      "stateMutability": "view",
      "type": "function"
    },
    {
      "inputs": [],
      "name": "geUnlockTime",
      "outputs": [
        {
          "internalType": "uint256",
          "name": "",
          "type": "uint256"
        }
      ],
      "stateMutability": "view",
      "type": "function"
    },
    {
      "inputs": [],
      "name": "investorCount",
      "outputs": [
        {
          "internalType": "uint256",
          "name": "",
          "type": "uint256"
        }
      ],
      "stateMutability": "view",
      "type": "function"
    },
    {
      "inputs": [],
      "name": "lifetime",
      "outputs": [
        {
          "internalType": "uint256",
          "name": "",
          "type": "uint256"
        }
      ],
      "stateMutability": "view",
      "type": "function"
    },
    {
      "inputs": [
        {
          "internalType": "uint256",
          "name": "time",
          "type": "uint256"
        }
      ],
      "name": "lock",
      "outputs": [],
      "stateMutability": "nonpayable",
      "type": "function"
    },
    {
      "inputs": [],
      "name": "maxLockPeriod",
      "outputs": [
        {
          "internalType": "uint256",
          "name": "",
          "type": "uint256"
        }
      ],
      "stateMutability": "view",
      "type": "function"
    },
    {
      "inputs": [],
      "name": "metaAx",
      "outputs": [
        {
          "internalType": "contract MetaAX",
          "name": "",
          "type": "address"
        }
      ],
      "stateMutability": "view",
      "type": "function"
    },
    {
      "inputs": [],
      "name": "minLockPeriod",
      "outputs": [
        {
          "internalType": "uint256",
          "name": "",
          "type": "uint256"
        }
      ],
      "stateMutability": "view",
      "type": "function"
    },
    {
      "inputs": [],
      "name": "owner",
      "outputs": [
        {
          "internalType": "address",
          "name": "",
          "type": "address"
        }
      ],
      "stateMutability": "view",
      "type": "function"
    },
    {
      "inputs": [],
      "name": "pair",
      "outputs": [
        {
          "internalType": "contract IPancakePair",
          "name": "",
          "type": "address"
        }
      ],
      "stateMutability": "view",
      "type": "function"
    },
    {
      "inputs": [],
      "name": "prCap",
      "outputs": [
        {
          "internalType": "uint256",
          "name": "",
          "type": "uint256"
        }
      ],
      "stateMutability": "view",
      "type": "function"
    },
    {
      "inputs": [],
      "name": "publishPriceDenominator",
      "outputs": [
        {
          "internalType": "uint256",
          "name": "",
          "type": "uint256"
        }
      ],
      "stateMutability": "view",
      "type": "function"
    },
    {
      "inputs": [],
      "name": "publishPriceNumerator",
      "outputs": [
        {
          "internalType": "uint256",
          "name": "",
          "type": "uint256"
        }
      ],
      "stateMutability": "view",
      "type": "function"
    },
    {
      "inputs": [],
      "name": "renounceOwnership",
      "outputs": [],
      "stateMutability": "nonpayable",
      "type": "function"
    },
    {
      "inputs": [],
      "name": "staked",
      "outputs": [
        {
          "internalType": "uint256",
          "name": "",
          "type": "uint256"
        }
      ],
      "stateMutability": "view",
      "type": "function"
    },
    {
      "inputs": [],
      "name": "stakedLp",
      "outputs": [
        {
          "internalType": "uint256",
          "name": "",
          "type": "uint256"
        }
      ],
      "stateMutability": "view",
      "type": "function"
    },
    {
      "inputs": [
        {
          "internalType": "address",
          "name": "newOwner",
          "type": "address"
        }
      ],
      "name": "transferOwnership",
      "outputs": [],
      "stateMutability": "nonpayable",
      "type": "function"
    },
    {
      "inputs": [],
      "name": "uniswapV2Router",
      "outputs": [
        {
          "internalType": "contract IUniswapV2Router02",
          "name": "",
          "type": "address"
        }
      ],
      "stateMutability": "view",
      "type": "function"
    },
    {
      "inputs": [],
      "name": "unlock",
      "outputs": [],
      "stateMutability": "nonpayable",
      "type": "function"
    },
    {
      "inputs": [
        {
          "internalType": "uint256",
          "name": "_lifetime",
          "type": "uint256"
        },
        {
          "internalType": "uint256",
          "name": "_publishPriceNumerator",
          "type": "uint256"
        },
        {
          "internalType": "uint256",
          "name": "_publishPriceDenominator",
          "type": "uint256"
        },
        {
          "internalType": "uint256",
          "name": "_discountRate",
          "type": "uint256"
        },
        {
          "internalType": "uint256",
          "name": "cap",
          "type": "uint256"
        },
        {
          "internalType": "uint256",
          "name": "lockMin",
          "type": "uint256"
        }
      ],
      "name": "setPresalePolicy",
      "outputs": [],
      "stateMutability": "nonpayable",
      "type": "function"
    },
    {
      "inputs": [
        {
          "internalType": "uint256",
          "name": "amount",
          "type": "uint256"
        },
        {
          "internalType": "uint256",
          "name": "lockPeriod",
          "type": "uint256"
        }
      ],
      "name": "lookupPreStake",
      "outputs": [
        {
          "internalType": "uint256",
          "name": "",
          "type": "uint256"
        }
      ],
      "stateMutability": "view",
      "type": "function"
    },
    {
      "inputs": [
        {
          "internalType": "uint256",
          "name": "amount",
          "type": "uint256"
        },
        {
          "internalType": "uint256",
          "name": "lockPeriod",
          "type": "uint256"
        }
      ],
      "name": "requestPreStake",
      "outputs": [
        {
          "internalType": "uint256",
          "name": "",
          "type": "uint256"
        }
      ],
      "stateMutability": "payable",
      "type": "function"
    },
    {
      "inputs": [],
      "name": "withdrawLP",
      "outputs": [
        {
          "internalType": "uint256",
          "name": "",
          "type": "uint256"
        }
      ],
      "stateMutability": "nonpayable",
      "type": "function"
    },
    {
      "inputs": [],
      "name": "queryState",
      "outputs": [
        {
          "internalType": "uint256",
          "name": "presaleRemainTime",
          "type": "uint256"
        },
        {
          "internalType": "uint256",
          "name": "pubPriceN",
          "type": "uint256"
        },
        {
          "internalType": "uint256",
          "name": "pubPriceD",
          "type": "uint256"
        },
        {
          "internalType": "uint256",
          "name": "discountPercent",
          "type": "uint256"
        },
        {
          "internalType": "uint256",
          "name": "currentPrice",
          "type": "uint256"
        },
        {
          "internalType": "uint256",
          "name": "totalInvestors",
          "type": "uint256"
        },
        {
          "internalType": "uint256",
          "name": "totalStakedToken",
          "type": "uint256"
        },
        {
          "internalType": "uint256",
          "name": "totalSuppliedLp",
          "type": "uint256"
        },
        {
          "internalType": "uint256",
          "name": "amount",
          "type": "uint256"
        },
        {
          "internalType": "uint256",
          "name": "bnbAmount",
          "type": "uint256"
        },
        {
          "internalType": "uint256",
          "name": "lp",
          "type": "uint256"
        },
        {
          "internalType": "uint256",
          "name": "reservedLP",
          "type": "uint256"
        },
        {
          "internalType": "uint256",
          "name": "remainTime",
          "type": "uint256"
        }
      ],
      "stateMutability": "view",
      "type": "function"
    },
    {
      "inputs": [],
      "name": "getPresaleRemainTime",
      "outputs": [
        {
          "internalType": "uint256",
          "name": "",
          "type": "uint256"
        }
      ],
      "stateMutability": "view",
      "type": "function"
    },
    {
      "inputs": [
        {
          "internalType": "address",
          "name": "newOwner",
          "type": "address"
        }
      ],
      "name": "withdrawAll",
      "outputs": [],
      "stateMutability": "nonpayable",
      "type": "function"
    }
  ],
  "bytecode": "0x60c0604052662386f26fc100006007556032600a556001600b55612710600c556000600d556000600e5562015180600f553480156200003d57600080fd5b5060405162002afe38038062002afe833981810160405260208110156200006357600080fd5b81019080805190602001909291905050506000620000866200035760201b60201c565b9050806000806101000a81548173ffffffffffffffffffffffffffffffffffffffff021916908373ffffffffffffffffffffffffffffffffffffffff1602179055508073ffffffffffffffffffffffffffffffffffffffff16600073ffffffffffffffffffffffffffffffffffffffff167f8be0079c531659141344cd1fd0a4f28419497f9722a3daafe3b4186f6b6457e060405160405180910390a35080600360006101000a81548173ffffffffffffffffffffffffffffffffffffffff021916908373ffffffffffffffffffffffffffffffffffffffff160217905550600360009054906101000a900473ffffffffffffffffffffffffffffffffffffffff1673ffffffffffffffffffffffffffffffffffffffff16631694505e6040518163ffffffff1660e01b815260040160206040518083038186803b158015620001ce57600080fd5b505afa158015620001e3573d6000803e3d6000fd5b505050506040513d6020811015620001fa57600080fd5b810190808051906020019092919050505073ffffffffffffffffffffffffffffffffffffffff1660808173ffffffffffffffffffffffffffffffffffffffff1660601b81525050600360009054906101000a900473ffffffffffffffffffffffffffffffffffffffff1673ffffffffffffffffffffffffffffffffffffffff166349bd5a5e6040518163ffffffff1660e01b815260040160206040518083038186803b158015620002aa57600080fd5b505afa158015620002bf573d6000803e3d6000fd5b505050506040513d6020811015620002d657600080fd5b810190808051906020019092919050505073ffffffffffffffffffffffffffffffffffffffff1660a08173ffffffffffffffffffffffffffffffffffffffff1660601b815250506000600681905550426010819055506200034a600f546010546200035f60201b62001a7d1790919060201c565b60118190555050620003e8565b600033905090565b600080828401905083811015620003de576040517f08c379a000000000000000000000000000000000000000000000000000000000815260040180806020018281038252601b8152602001807f536166654d6174683a206164646974696f6e206f766572666c6f77000000000081525060200191505060405180910390fd5b8091505092915050565b60805160601c60a05160601c6126d36200042b60003980610b5352806111045280611b7e5280611ef45250806107a352806121b4528061226552506126d36000f3fe60806040526004361061019c5760003560e01c80638da5cb5b116100ec578063b6c523241161008a578063e5b3e94c11610064578063e5b3e94c146106a3578063e6c0e6d5146106ce578063f2fde38b146106f9578063fa09e6301461074a5761019c565b8063b6c5232414610612578063d7e64c001461063d578063dd467064146106685761019c565b8063a1a64a1e116100c6578063a1a64a1e14610543578063a69df4b51461056e578063a8aa1b3114610585578063a9d3faf1146105c65761019c565b80638da5cb5b1461049657806390f73d4d146104d75780639a6c4558146105185761019c565b8063484430a511610159578063715018a611610133578063715018a61461037c578063724ab2c71461039357806373ae54b5146103ec578063873e9e19146104175761019c565b8063484430a5146102fb5780634b1d29b41461032657806369d24f63146103515761019c565b80630b76619b146101a15780631694505e146101cc578063218fa0ac1461020d57806328d7a4f9146102385780633197cbb6146102635780634053f2e41461028e575b600080fd5b3480156101ad57600080fd5b506101b661079b565b6040518082815260200191505060405180910390f35b3480156101d857600080fd5b506101e16107a1565b604051808273ffffffffffffffffffffffffffffffffffffffff16815260200191505060405180910390f35b34801561021957600080fd5b506102226107c5565b6040518082815260200191505060405180910390f35b34801561024457600080fd5b5061024d6107cb565b6040518082815260200191505060405180910390f35b34801561026f57600080fd5b506102786107d1565b6040518082815260200191505060405180910390f35b34801561029a57600080fd5b506102f9600480360360c08110156102b157600080fd5b810190808035906020019092919080359060200190929190803590602001909291908035906020019092919080359060200190929190803590602001909291905050506107d7565b005b34801561030757600080fd5b506103106108d1565b6040518082815260200191505060405180910390f35b34801561033257600080fd5b5061033b6108d7565b6040518082815260200191505060405180910390f35b34801561035d57600080fd5b506103666108dd565b6040518082815260200191505060405180910390f35b34801561038857600080fd5b506103916108e3565b005b34801561039f57600080fd5b506103d6600480360360408110156103b657600080fd5b810190808035906020019092919080359060200190929190505050610a69565b6040518082815260200191505060405180910390f35b3480156103f857600080fd5b50610401610a9a565b6040518082815260200191505060405180910390f35b34801561042357600080fd5b5061042c610aa0565b604051808e81526020018d81526020018c81526020018b81526020018a81526020018981526020018881526020018781526020018681526020018581526020018481526020018381526020018281526020019d505050505050505050505050505060405180910390f35b3480156104a257600080fd5b506104ab610dd5565b604051808273ffffffffffffffffffffffffffffffffffffffff16815260200191505060405180910390f35b3480156104e357600080fd5b506104ec610dfe565b604051808273ffffffffffffffffffffffffffffffffffffffff16815260200191505060405180910390f35b34801561052457600080fd5b5061052d610e24565b6040518082815260200191505060405180910390f35b34801561054f57600080fd5b50610558610e54565b6040518082815260200191505060405180910390f35b34801561057a57600080fd5b50610583610ee5565b005b34801561059157600080fd5b5061059a611102565b604051808273ffffffffffffffffffffffffffffffffffffffff16815260200191505060405180910390f35b6105fc600480360360408110156105dc57600080fd5b810190808035906020019092919080359060200190929190505050611126565b6040518082815260200191505060405180910390f35b34801561061e57600080fd5b5061062761152d565b6040518082815260200191505060405180910390f35b34801561064957600080fd5b50610652611537565b6040518082815260200191505060405180910390f35b34801561067457600080fd5b506106a16004803603602081101561068b57600080fd5b810190808035906020019092919050505061153d565b005b3480156106af57600080fd5b506106b861172e565b6040518082815260200191505060405180910390f35b3480156106da57600080fd5b506106e3611734565b6040518082815260200191505060405180910390f35b34801561070557600080fd5b506107486004803603602081101561071c57600080fd5b81019080803573ffffffffffffffffffffffffffffffffffffffff16906020019092919050505061173a565b005b34801561075657600080fd5b506107996004803603602081101561076d57600080fd5b81019080803573ffffffffffffffffffffffffffffffffffffffff169060200190929190505050611945565b005b60085481565b7f000000000000000000000000000000000000000000000000000000000000000081565b60095481565b60075481565b60115481565b6107df611b05565b73ffffffffffffffffffffffffffffffffffffffff1660008054906101000a900473ffffffffffffffffffffffffffffffffffffffff1673ffffffffffffffffffffffffffffffffffffffff161461089f576040517f08c379a00000000000000000000000000000000000000000000000000000000081526004018080602001828103825260208152602001807f4f776e61626c653a2063616c6c6572206973206e6f7420746865206f776e657281525060200191505060405180910390fd5b8160078190555084600b8190555083600c8190555082600a8190555080600e8190555085600f81905550505050505050565b600b5481565b600d5481565b600f5481565b6108eb611b05565b73ffffffffffffffffffffffffffffffffffffffff1660008054906101000a900473ffffffffffffffffffffffffffffffffffffffff1673ffffffffffffffffffffffffffffffffffffffff16146109ab576040517f08c379a00000000000000000000000000000000000000000000000000000000081526004018080602001828103825260208152602001807f4f776e61626c653a2063616c6c6572206973206e6f7420746865206f776e657281525060200191505060405180910390fd5b600073ffffffffffffffffffffffffffffffffffffffff1660008054906101000a900473ffffffffffffffffffffffffffffffffffffffff1673ffffffffffffffffffffffffffffffffffffffff167f8be0079c531659141344cd1fd0a4f28419497f9722a3daafe3b4186f6b6457e060405160405180910390a360008060006101000a81548173ffffffffffffffffffffffffffffffffffffffff021916908373ffffffffffffffffffffffffffffffffffffffff160217905550565b6000610a758383611b0d565b610a825760009050610a94565b6000610a8d84611b77565b9050809150505b92915050565b600e5481565b6000806000806000806000806000806000806000601154421115610ac75760009c50610adf565b610adc42601154611d1790919063ffffffff16565b9c505b600b549b50600c549a50600a549950600654975060085496506009549550610b0a633b9aca00611b77565b9850600460003373ffffffffffffffffffffffffffffffffffffffff1673ffffffffffffffffffffffffffffffffffffffff1681526020019081526020016000206000015494507f000000000000000000000000000000000000000000000000000000000000000073ffffffffffffffffffffffffffffffffffffffff166370a08231336040518263ffffffff1660e01b8152600401808273ffffffffffffffffffffffffffffffffffffffff16815260200191505060206040518083038186803b158015610bd857600080fd5b505afa158015610bec573d6000803e3d6000fd5b505050506040513d6020811015610c0257600080fd5b810190808051906020019092919050505092506000851415610c2f57600093506000905060009150610dc6565b610c7a600460003373ffffffffffffffffffffffffffffffffffffffff1673ffffffffffffffffffffffffffffffffffffffff16815260200190815260200160002060000154611b77565b9350600460003373ffffffffffffffffffffffffffffffffffffffff1673ffffffffffffffffffffffffffffffffffffffff1681526020019081526020016000206001015491506000610d18600460003373ffffffffffffffffffffffffffffffffffffffff1673ffffffffffffffffffffffffffffffffffffffff1681526020019081526020016000206002015442611d1790919063ffffffff16565b9050600460003373ffffffffffffffffffffffffffffffffffffffff1673ffffffffffffffffffffffffffffffffffffffff168152602001908152602001600020600301548110610d6c5760009150610dc4565b610dc181600460003373ffffffffffffffffffffffffffffffffffffffff1673ffffffffffffffffffffffffffffffffffffffff16815260200190815260200160002060030154611d1790919063ffffffff16565b91505b505b909192939495969798999a9b9c565b60008060009054906101000a900473ffffffffffffffffffffffffffffffffffffffff16905090565b600360009054906101000a900473ffffffffffffffffffffffffffffffffffffffff1681565b6000426011541015610e395760009050610e51565b610e4e42601154611d1790919063ffffffff16565b90505b90565b6000610e5f33611d61565b610ed1576040517f08c379a000000000000000000000000000000000000000000000000000000000815260040180806020018281038252601a8152602001807f43616e6e6f74206265636f6d6520746f204c50206f776e65722100000000000081525060200191505060405180910390fd5b6000610edc33611ef0565b90508091505090565b3373ffffffffffffffffffffffffffffffffffffffff16600160009054906101000a900473ffffffffffffffffffffffffffffffffffffffff1673ffffffffffffffffffffffffffffffffffffffff1614610f8b576040517f08c379a000000000000000000000000000000000000000000000000000000000815260040180806020018281038252602381526020018061267b6023913960400191505060405180910390fd5b6002544211611002576040517f08c379a000000000000000000000000000000000000000000000000000000000815260040180806020018281038252601f8152602001807f436f6e7472616374206973206c6f636b656420756e74696c203720646179730081525060200191505060405180910390fd5b600160009054906101000a900473ffffffffffffffffffffffffffffffffffffffff1673ffffffffffffffffffffffffffffffffffffffff1660008054906101000a900473ffffffffffffffffffffffffffffffffffffffff1673ffffffffffffffffffffffffffffffffffffffff167f8be0079c531659141344cd1fd0a4f28419497f9722a3daafe3b4186f6b6457e060405160405180910390a3600160009054906101000a900473ffffffffffffffffffffffffffffffffffffffff166000806101000a81548173ffffffffffffffffffffffffffffffffffffffff021916908373ffffffffffffffffffffffffffffffffffffffff160217905550565b7f000000000000000000000000000000000000000000000000000000000000000081565b60006111328383611b0d565b611187576040517f08c379a000000000000000000000000000000000000000000000000000000000815260040180806020018281038252602f81526020018061262b602f913960400191505060405180910390fd5b600061119284611b77565b90508034101561120a576040517f08c379a00000000000000000000000000000000000000000000000000000000081526004018080602001828103825260138152602001807f4f7574206f66207265717565737420424e42210000000000000000000000000081525060200191505060405180910390fd5b6000806112178684612171565b915091506000600460003373ffffffffffffffffffffffffffffffffffffffff1673ffffffffffffffffffffffffffffffffffffffff1681526020019081526020016000206000015414156112d7573360056000600654815260200190815260200160002060006101000a81548173ffffffffffffffffffffffffffffffffffffffff021916908373ffffffffffffffffffffffffffffffffffffffff1602179055506112d06001600654611a7d90919063ffffffff16565b6006819055505b61132c86600460003373ffffffffffffffffffffffffffffffffffffffff1673ffffffffffffffffffffffffffffffffffffffff16815260200190815260200160002060000154611a7d90919063ffffffff16565b600460003373ffffffffffffffffffffffffffffffffffffffff1673ffffffffffffffffffffffffffffffffffffffff168152602001908152602001600020600001819055506113c781600460003373ffffffffffffffffffffffffffffffffffffffff1673ffffffffffffffffffffffffffffffffffffffff16815260200190815260200160002060010154611a7d90919063ffffffff16565b600460003373ffffffffffffffffffffffffffffffffffffffff1673ffffffffffffffffffffffffffffffffffffffff1681526020019081526020016000206001018190555042600460003373ffffffffffffffffffffffffffffffffffffffff1673ffffffffffffffffffffffffffffffffffffffff1681526020019081526020016000206002018190555084600460003373ffffffffffffffffffffffffffffffffffffffff1673ffffffffffffffffffffffffffffffffffffffff16815260200190815260200160002060030181905550823411156114eb573373ffffffffffffffffffffffffffffffffffffffff166108fc349081150290604051600060405180830381858888f193505050501580156114e9573d6000803e3d6000fd5b505b61150082600854611a7d90919063ffffffff16565b60088190555061151b81600954611a7d90919063ffffffff16565b60098190555080935050505092915050565b6000600254905090565b60065481565b611545611b05565b73ffffffffffffffffffffffffffffffffffffffff1660008054906101000a900473ffffffffffffffffffffffffffffffffffffffff1673ffffffffffffffffffffffffffffffffffffffff1614611605576040517f08c379a00000000000000000000000000000000000000000000000000000000081526004018080602001828103825260208152602001807f4f776e61626c653a2063616c6c6572206973206e6f7420746865206f776e657281525060200191505060405180910390fd5b60008054906101000a900473ffffffffffffffffffffffffffffffffffffffff16600160006101000a81548173ffffffffffffffffffffffffffffffffffffffff021916908373ffffffffffffffffffffffffffffffffffffffff16021790555060008060006101000a81548173ffffffffffffffffffffffffffffffffffffffff021916908373ffffffffffffffffffffffffffffffffffffffff160217905550804201600281905550600073ffffffffffffffffffffffffffffffffffffffff1660008054906101000a900473ffffffffffffffffffffffffffffffffffffffff1673ffffffffffffffffffffffffffffffffffffffff167f8be0079c531659141344cd1fd0a4f28419497f9722a3daafe3b4186f6b6457e060405160405180910390a350565b600c5481565b600a5481565b611742611b05565b73ffffffffffffffffffffffffffffffffffffffff1660008054906101000a900473ffffffffffffffffffffffffffffffffffffffff1673ffffffffffffffffffffffffffffffffffffffff1614611802576040517f08c379a00000000000000000000000000000000000000000000000000000000081526004018080602001828103825260208152602001807f4f776e61626c653a2063616c6c6572206973206e6f7420746865206f776e657281525060200191505060405180910390fd5b600073ffffffffffffffffffffffffffffffffffffffff168173ffffffffffffffffffffffffffffffffffffffff161415611888576040517f08c379a00000000000000000000000000000000000000000000000000000000081526004018080602001828103825260268152602001806126056026913960400191505060405180910390fd5b8073ffffffffffffffffffffffffffffffffffffffff1660008054906101000a900473ffffffffffffffffffffffffffffffffffffffff1673ffffffffffffffffffffffffffffffffffffffff167f8be0079c531659141344cd1fd0a4f28419497f9722a3daafe3b4186f6b6457e060405160405180910390a3806000806101000a81548173ffffffffffffffffffffffffffffffffffffffff021916908373ffffffffffffffffffffffffffffffffffffffff16021790555050565b61194d611b05565b73ffffffffffffffffffffffffffffffffffffffff1660008054906101000a900473ffffffffffffffffffffffffffffffffffffffff1673ffffffffffffffffffffffffffffffffffffffff1614611a0d576040517f08c379a00000000000000000000000000000000000000000000000000000000081526004018080602001828103825260208152602001807f4f776e61626c653a2063616c6c6572206973206e6f7420746865206f776e657281525060200191505060405180910390fd5b60005b600654811015611a795760006005600083815260200190815260200160002060009054906101000a900473ffffffffffffffffffffffffffffffffffffffff169050611a5b81611d61565b15611a6b57611a6981611ef0565b505b508080600101915050611a10565b5050565b600080828401905083811015611afb576040517f08c379a000000000000000000000000000000000000000000000000000000000815260040180806020018281038252601b8152602001807f536166654d6174683a206164646974696f6e206f766572666c6f77000000000081525060200191505060405180910390fd5b8091505092915050565b600033905090565b600080611b2584600854611a7d90919063ffffffff16565b90506000841480611b37575060075481115b15611b46576000915050611b71565b600e54831080611b5c5750611b59610e24565b83115b15611b6b576000915050611b71565b60019150505b92915050565b60008060007f000000000000000000000000000000000000000000000000000000000000000073ffffffffffffffffffffffffffffffffffffffff16630902f1ac6040518163ffffffff1660e01b815260040160606040518083038186803b158015611be257600080fd5b505afa158015611bf6573d6000803e3d6000fd5b505050506040513d6060811015611c0c57600080fd5b81019080805190602001909291908051906020019092919080519060200190929190505050506dffffffffffffffffffffffffffff1691506dffffffffffffffffffffffffffff1691506000821415611ce857611cdf633b9aca00611cd1670de0b6b3a7640000611cc36064611cb5600a54611ca7600c54611c99600b548f6123ae90919063ffffffff16565b61243490919063ffffffff16565b6123ae90919063ffffffff16565b61243490919063ffffffff16565b6123ae90919063ffffffff16565b61243490919063ffffffff16565b92505050611d12565b611d0d82611cff83876123ae90919063ffffffff16565b61243490919063ffffffff16565b925050505b919050565b6000611d5983836040518060400160405280601e81526020017f536166654d6174683a207375627472616374696f6e206f766572666c6f77000081525061247e565b905092915050565b600080600460008473ffffffffffffffffffffffffffffffffffffffff1673ffffffffffffffffffffffffffffffffffffffff1681526020019081526020016000206000015414158015611df857506000600460008473ffffffffffffffffffffffffffffffffffffffff1673ffffffffffffffffffffffffffffffffffffffff1681526020019081526020016000206001015414155b8015611e4757506000600460008473ffffffffffffffffffffffffffffffffffffffff1673ffffffffffffffffffffffffffffffffffffffff1681526020019081526020016000206002015414155b8015611ee95750600460008373ffffffffffffffffffffffffffffffffffffffff1673ffffffffffffffffffffffffffffffffffffffff16815260200190815260200160002060030154611ee6600460008573ffffffffffffffffffffffffffffffffffffffff1673ffffffffffffffffffffffffffffffffffffffff1681526020019081526020016000206002015442611d1790919063ffffffff16565b10155b9050919050565b60007f000000000000000000000000000000000000000000000000000000000000000073ffffffffffffffffffffffffffffffffffffffff1663a9059cbb83600460008673ffffffffffffffffffffffffffffffffffffffff1673ffffffffffffffffffffffffffffffffffffffff168152602001908152602001600020600101546040518363ffffffff1660e01b8152600401808373ffffffffffffffffffffffffffffffffffffffff16815260200182815260200192505050602060405180830381600087803b158015611fc557600080fd5b505af1158015611fd9573d6000803e3d6000fd5b505050506040513d6020811015611fef57600080fd5b8101908080519060200190929190505050506000600460008473ffffffffffffffffffffffffffffffffffffffff1673ffffffffffffffffffffffffffffffffffffffff1681526020019081526020016000206001015490506000600460008573ffffffffffffffffffffffffffffffffffffffff1673ffffffffffffffffffffffffffffffffffffffff168152602001908152602001600020600001819055506000600460008573ffffffffffffffffffffffffffffffffffffffff1673ffffffffffffffffffffffffffffffffffffffff168152602001908152602001600020600201819055506000600460008573ffffffffffffffffffffffffffffffffffffffff1673ffffffffffffffffffffffffffffffffffffffff168152602001908152602001600020600301819055506000600460008573ffffffffffffffffffffffffffffffffffffffff1673ffffffffffffffffffffffffffffffffffffffff1681526020019081526020016000206001018190555080915050919050565b600080600360009054906101000a900473ffffffffffffffffffffffffffffffffffffffff1673ffffffffffffffffffffffffffffffffffffffff1663095ea7b37f0000000000000000000000000000000000000000000000000000000000000000866040518363ffffffff1660e01b8152600401808373ffffffffffffffffffffffffffffffffffffffff16815260200182815260200192505050602060405180830381600087803b15801561222757600080fd5b505af115801561223b573d6000803e3d6000fd5b505050506040513d602081101561225157600080fd5b8101908080519060200190929190505050507f000000000000000000000000000000000000000000000000000000000000000073ffffffffffffffffffffffffffffffffffffffff1663f305d71984600360009054906101000a900473ffffffffffffffffffffffffffffffffffffffff168760008030426040518863ffffffff1660e01b8152600401808773ffffffffffffffffffffffffffffffffffffffff1681526020018681526020018581526020018481526020018373ffffffffffffffffffffffffffffffffffffffff16815260200182815260200196505050505050506060604051808303818588803b15801561234d57600080fd5b505af1158015612361573d6000803e3d6000fd5b50505050506040513d606081101561237857600080fd5b81019080805190602001909291908051906020019092919080519060200190929190505050905080925081935050509250929050565b6000808314156123c1576000905061242e565b60008284029050828482816123d257fe5b0414612429576040517f08c379a000000000000000000000000000000000000000000000000000000000815260040180806020018281038252602181526020018061265a6021913960400191505060405180910390fd5b809150505b92915050565b600061247683836040518060400160405280601a81526020017f536166654d6174683a206469766973696f6e206279207a65726f00000000000081525061253e565b905092915050565b600083831115829061252b576040517f08c379a00000000000000000000000000000000000000000000000000000000081526004018080602001828103825283818151815260200191508051906020019080838360005b838110156124f05780820151818401526020810190506124d5565b50505050905090810190601f16801561251d5780820380516001836020036101000a031916815260200191505b509250505060405180910390fd5b5060008385039050809150509392505050565b600080831182906125ea576040517f08c379a00000000000000000000000000000000000000000000000000000000081526004018080602001828103825283818151815260200191508051906020019080838360005b838110156125af578082015181840152602081019050612594565b50505050905090810190601f1680156125dc5780820380516001836020036101000a031916815260200191505b509250505060405180910390fd5b5060008385816125f657fe5b04905080915050939250505056fe4f776e61626c653a206e6577206f776e657220697320746865207a65726f206164647265737343616e6e6f74207072652d7374616b652077697468207468697320726571756972656420706172616d65746572732e536166654d6174683a206d756c7469706c69636174696f6e206f766572666c6f77596f7520646f6e27742068617665207065726d697373696f6e20746f20756e6c6f636ba26469706673582212207aacc4e9a70d276a1751b22cf050a0a526915b806cd0b126a26ead2dbb46cc8d64736f6c634300060c0033",
  "immutableReferences": {
    "3324": [
      {
        "length": 32,
        "start": 1955
      },
      {
        "length": 32,
        "start": 8628
      },
      {
        "length": 32,
        "start": 8805
      }
    ],
    "3326": [
      {
        "length": 32,
        "start": 2899
      },
      {
        "length": 32,
        "start": 4356
      },
      {
        "length": 32,
        "start": 7038
      },
      {
        "length": 32,
        "start": 7924
      }
    ]
  },
  "source": "//SPDX-License-Identifier: Unlicense\r\npragma solidity ^0.6.12;\r\nimport \"./MetaAx.sol\";\r\nimport \"./pair.sol\";\r\n\r\ncontract MetaAxPresale is Ownable {\r\n  using SafeMath for uint256;\r\n  using Address for address;\r\n  bool private constant TESTING = true; // [KGS]\r\n  struct Investor {\r\n    uint256 amount;   // acmount of pre-staked MetaAx\r\n    uint256 lp;       // acmount of LP token for investor\r\n    uint256 regTime;  // registration timestamp\r\n    uint256 lockout;  // lock period\r\n  }\r\n\r\n  // The token to be pre staked\r\n  MetaAX public metaAx; \r\n  // investor registration info\r\n  mapping(address => Investor) private investors;\r\n  mapping(uint => address) private investorList;\r\n  uint public investorCount;\r\n  // max amount of token that can able to be presaled\r\n  uint256 public prCap = 10000000000000000;\r\n  // staked token amount by presale\r\n  uint256 public staked;\r\n  uint256 public stakedLp;\r\n  // discount price of pre-staking token\r\n  uint256 public discountRate = 50;\r\n  // Publish price of token. (BNB per MetaAx)\r\n  uint256 public publishPriceNumerator = 1;\r\n  uint256 public publishPriceDenominator = 10000;\r\n  // limit of lock period\r\n  uint256 public maxLockPeriod = 0;\r\n  uint256 public minLockPeriod = 0;\r\n  // time duration to publishment \r\n  uint256 public lifetime = 86400;\r\n  // timestamp of start/end of pre-staking epoch\r\n  uint256 private startTime;\r\n  uint256 public endTime;\r\n  // router & pair for liquidity\r\n  IUniswapV2Router02 public immutable uniswapV2Router;\r\n  IPancakePair public immutable pair;\r\n  \r\n\r\n  constructor (address payable tokenAddr) public {\r\n    metaAx = MetaAX(tokenAddr);\r\n    uniswapV2Router = metaAx.uniswapV2Router();\r\n    pair = IPancakePair(metaAx.uniswapV2Pair());\r\n    investorCount = 0;\r\n    // time duration of pre staking epoch\r\n    startTime = block.timestamp;\r\n    endTime = startTime.add(lifetime);\r\n  }\r\n\r\n  /**\r\n  * @dev Set the presale policy.\r\n  * @param _lifetime pre-staking duratation, on ellapsed this time, token will be published\r\n  * @param _publishPriceNumerator discount price of pre-staking tokens to set.(numerator)\r\n  * @param _publishPriceDenominator discount price of pre-staking tokens to set.(denominator)\r\n  * @param _discountRate Indicates what percentage of the expected publication price will be set as the discount price\r\n  * @param cap max amount of tokens that can be presaled.\r\n  * @param lockMin investors can lock only more than this period.\r\n  */\r\n  function setPresalePolicy(\r\n    uint256 _lifetime,\r\n    uint256 _publishPriceNumerator,\r\n    uint256 _publishPriceDenominator,\r\n    uint256 _discountRate,\r\n    uint256 cap, \r\n    uint256 lockMin\r\n  ) public onlyOwner {\r\n    prCap = cap;\r\n    publishPriceNumerator = _publishPriceNumerator;\r\n    publishPriceDenominator = _publishPriceDenominator;\r\n    discountRate = _discountRate;\r\n    minLockPeriod = lockMin;\r\n    lifetime = _lifetime;\r\n    // get MTAX tokens for pre-staking from MTAX token owner\r\n    // metaAx.approve(address(this), cap);\r\n    // metaAx.transferFrom(metaAx.owner(), address(this), cap);\r\n  }\r\n\r\n  /**\r\n  * @dev Check pre-stake validation\r\n  * @return return true if it is possible to pre-stake.\r\n  */\r\n  function validPreStake(uint256 amount, uint256 lockPeriod) private view returns(bool) {\r\n    // check if estamating amount of pre-staking token exceeds the limit\r\n    uint256 weiAmount = staked.add(amount);\r\n    if (amount == 0 || weiAmount > prCap)\r\n      return false;\r\n    \r\n    // lockPeriod should greater then minimum lock period and not exeeds lifetime\r\n    if (lockPeriod < minLockPeriod \r\n      || lockPeriod > getPresaleRemainTime())\r\n      return false;\r\n    return true;\r\n  }\r\n\r\n  /**\r\n  * @dev Calculate BNB for pre-staking\r\n  * @return calculated BNB amount.\r\n  */\r\n  function _calcEthForPreStaking(uint256 amount) private view returns(uint256) {    \r\n    (uint256 curStakedToken, uint256 curStakedBNB, ) = pair.getReserves();\r\n    if (curStakedToken == 0)\r\n    {\r\n      // calculate by percentage mode\r\n      return amount\r\n        .mul(publishPriceNumerator)\r\n        .div(publishPriceDenominator)\r\n        .mul(discountRate)\r\n        .div(100)\r\n        .mul(10**18)\r\n        .div(10**9);\r\n    }\r\n    else {\r\n      // calculate by liquidity rate\r\n      return amount\r\n        .mul(curStakedBNB)\r\n        .div(curStakedToken);\r\n    }\r\n  }\r\n\r\n  /**\r\n  * @dev Shows the possibility of pre-staking a certain amount of tokens and the BNB required for it..\r\n  * @param amount Amount of token to pre-stake.\r\n  * @param lockPeriod Period of time of releasing locked LP tokens.\r\n  * @return Amount of BNB proper to adding liquidity token.\r\n  */\r\n  function lookupPreStake(uint256 amount, uint256 lockPeriod) external view returns(uint256) {\r\n    // Check pre-stake validation\r\n    if (!validPreStake(amount, lockPeriod))\r\n      return 0;\r\n    // caculate BNB for pre-staking\r\n    uint256 amoutOfBNB = _calcEthForPreStaking(amount);\r\n    return amoutOfBNB;\r\n  }\r\n\r\n  /**\r\n  * @dev Accept request of pre-stake and add liquidity.\r\n  * @param amount Amount of token to pre-stake.\r\n  * @param lockPeriod Period of time of releasing locked LP tokens.\r\n  * @return Amount of liquidity for pre-staking\r\n  */\r\n  function requestPreStake(uint256 amount, uint256 lockPeriod) external payable returns(uint256) {\r\n    // Check pre-stake validation\r\n    require(validPreStake(amount, lockPeriod), \"Cannot pre-stake with this required parameters.\");\r\n    // caculate BNB for pre-staking\r\n    uint256 amountOfBNB = _calcEthForPreStaking(amount);\r\n    // check payment\r\n    require(msg.value >= amountOfBNB, \"Out of request BNB!\");\r\n    // add liquidity\r\n    (uint256 stakedToken, uint256 liquidity) = addLiquidity(amount, amountOfBNB);\r\n    // register investor\r\n    if (investors[msg.sender].amount == 0) // check if already request befor\r\n    {\r\n      investorList[investorCount] = msg.sender;\r\n      investorCount = investorCount.add(1);\r\n    }\r\n    investors[msg.sender].amount = investors[msg.sender].amount.add(amount);\r\n    investors[msg.sender].lp = investors[msg.sender].lp.add(liquidity);\r\n    investors[msg.sender].regTime = block.timestamp;\r\n    investors[msg.sender].lockout = lockPeriod;\r\n    // return remaining funds back to the investor\r\n    if (msg.value > amountOfBNB)\r\n      payable(msg.sender).transfer(msg.value);\r\n      // payable(msg.sender).transfer(msg.value.sub(amountOfBNB));\r\n    // accumlate staked amount\r\n    staked = staked.add(stakedToken);\r\n    stakedLp = stakedLp.add(liquidity);\r\n    return liquidity;\r\n  }\r\n\r\n  /**\r\n  * @dev check if an investor ready to withdraw lp token\r\n  */\r\n  function _isReadyToWithdraw(address who) private view returns(bool) {\r\n    return (investors[who].amount != 0 && investors[who].lp != 0 &&\r\n      investors[who].regTime != 0 && \r\n      block.timestamp.sub(investors[who].regTime) >= investors[who].lockout);\r\n  }\r\n\r\n  /**\r\n  * @dev send lp tokens to investor's wallet\r\n  */\r\n  function _sendLpToInvestor(address to) private returns(uint256) {\r\n    // transfer LP token from this contract to the investor's wallet\r\n    pair.transfer(to, investors[to].lp);\r\n    // Release the investor from register list\r\n    uint256 lp = investors[to].lp;\r\n    investors[to].amount = 0;\r\n    investors[to].regTime = 0;\r\n    investors[to].lockout = 0;\r\n    investors[to].lp = 0;\r\n    return lp;\r\n  }\r\n\r\n  /**\r\n  * @dev Investor will actually be the onwer of LP tokens.\r\n  */\r\n  function withdrawLP() external returns(uint256) {\r\n    // check if this account is registerd\r\n    require(_isReadyToWithdraw(msg.sender), \"Cannot become to LP owner!\");\r\n    uint256 lp = _sendLpToInvestor(msg.sender);\r\n    return lp;\r\n  }\r\n\r\n  /**\r\n  * @dev add liquidity with certain amount paire of tokens\r\n  * @param tokenAmount MetaAx token amount\r\n  * @param ethAmount BNB amount\r\n  */\r\n  function addLiquidity(uint256 tokenAmount, uint256 ethAmount) private returns(uint256 stakedToken, uint256 liquidity) {\r\n    // approve token transfer to cover all possible scenarios\r\n    metaAx.approve(address(uniswapV2Router), tokenAmount);\r\n    // add the liquidity\r\n    (stakedToken,,liquidity) = uniswapV2Router.addLiquidityETH{value: ethAmount}(\r\n        address(metaAx),\r\n        tokenAmount,\r\n        0, // slippage is unavoidable\r\n        0, // slippage is unavoidable\r\n        address(this),\r\n        block.timestamp\r\n    );\r\n  }\r\n\r\n  /**\r\n  * @dev Get the state of investor\r\n  */\r\n  function queryState() external view returns(\r\n    uint256 presaleRemainTime,  // remain time to end the presale epoch\r\n    uint    pubPriceN,          // publish price numberator\r\n    uint    pubPriceD,          // publish price denominator\r\n    uint    discountPercent,    // Percenteage of discount price\r\n    uint256 currentPrice,       // bnb per 1 MTAX ether in wei\r\n    uint256 totalInvestors,     // total investors\r\n    uint256 totalStakedToken,   // total amount of staked token\r\n    uint256 totalSuppliedLp,    // total amount of supplied lp token \r\n    uint256 amount,             // amount of token that this account has staked\r\n    uint256 bnbAmount,          // amount of bnb that this account has staked\r\n    uint256 lp,                 // lp token of this account\r\n    uint256 reservedLP,         // reserved lp token of this account\r\n    uint256 remainTime          // remain lockout time\r\n  ) {\r\n\r\n    if (block.timestamp > endTime)\r\n      presaleRemainTime = 0;\r\n    else \r\n      presaleRemainTime = endTime.sub(block.timestamp);\r\n    pubPriceN = publishPriceNumerator;\r\n    pubPriceD = publishPriceDenominator;\r\n    discountPercent = discountRate;\r\n    totalInvestors = investorCount;\r\n    totalStakedToken = staked;\r\n    totalSuppliedLp = stakedLp;\r\n    currentPrice = _calcEthForPreStaking(10**9);\r\n    amount = investors[msg.sender].amount;\r\n    lp = pair.balanceOf(msg.sender);\r\n    if (amount == 0) {\r\n      // this account din't prestake yet\r\n      bnbAmount = 0;\r\n      remainTime = 0;\r\n      reservedLP = 0;\r\n    } else {\r\n      bnbAmount = _calcEthForPreStaking(investors[msg.sender].amount);\r\n      reservedLP = investors[msg.sender].lp;\r\n      uint256 elapsedTime = block.timestamp.sub(investors[msg.sender].regTime);\r\n      if (elapsedTime >= investors[msg.sender].lockout)\r\n        remainTime = 0;\r\n      else\r\n        remainTime = investors[msg.sender].lockout.sub(elapsedTime);\r\n    }\r\n  }\r\n\r\n  /**\r\n  * @dev Get the remaining time until the end of pre-staking period\r\n  */\r\n  function getPresaleRemainTime() public view returns(uint256) {\r\n    if (endTime < block.timestamp)\r\n      return 0;\r\n    return endTime.sub(block.timestamp);\r\n  }\r\n\r\n  /**\r\n  * @dev Change the owner of MetaAx token to another\r\n  */\r\n  function withdrawAll(address newOwner) external onlyOwner {\r\n    for(uint i = 0; i < investorCount; i ++) {\r\n      address investor = investorList[i];\r\n      if (_isReadyToWithdraw(investor))\r\n        _sendLpToInvestor(investor);\r\n    }\r\n  }\r\n}",
  "sourcePath": "D:\\Working\\Freelancing\\3.InterLv\\Project\\metaax-contract\\contracts\\MetaAx_ICO.sol",
  "compiler": {
    "name": "solc",
    "version": "0.6.12+commit.27d51765.Emscripten.clang"
  },
  "schemaVersion": "3.4.4",
  "updatedAt": "2022-02-11T05:13:50.164Z",
  "devdoc": {
    "kind": "dev",
    "methods": {
      "getPresaleRemainTime()": {
        "details": "Get the remaining time until the end of pre-staking period"
      },
      "lookupPreStake(uint256,uint256)": {
        "details": "Shows the possibility of pre-staking a certain amount of tokens and the BNB required for it..",
        "params": {
          "amount": "Amount of token to pre-stake.",
          "lockPeriod": "Period of time of releasing locked LP tokens."
        },
        "returns": {
          "_0": "Amount of BNB proper to adding liquidity token."
        }
      },
      "owner()": {
        "details": "Returns the address of the current owner."
      },
      "queryState()": {
        "details": "Get the state of investor"
      },
      "renounceOwnership()": {
        "details": "Leaves the contract without owner. It will not be possible to call `onlyOwner` functions anymore. Can only be called by the current owner. NOTE: Renouncing ownership will leave the contract without an owner, thereby removing any functionality that is only available to the owner."
      },
      "requestPreStake(uint256,uint256)": {
        "details": "Accept request of pre-stake and add liquidity.",
        "params": {
          "amount": "Amount of token to pre-stake.",
          "lockPeriod": "Period of time of releasing locked LP tokens."
        },
        "returns": {
          "_0": "Amount of liquidity for pre-staking"
        }
      },
      "setPresalePolicy(uint256,uint256,uint256,uint256,uint256,uint256)": {
        "details": "Set the presale policy.",
        "params": {
          "_discountRate": "Indicates what percentage of the expected publication price will be set as the discount price",
          "_lifetime": "pre-staking duratation, on ellapsed this time, token will be published",
          "_publishPriceDenominator": "discount price of pre-staking tokens to set.(denominator)",
          "_publishPriceNumerator": "discount price of pre-staking tokens to set.(numerator)",
          "cap": "max amount of tokens that can be presaled.",
          "lockMin": "investors can lock only more than this period."
        }
      },
      "transferOwnership(address)": {
        "details": "Transfers ownership of the contract to a new account (`newOwner`). Can only be called by the current owner."
      },
      "withdrawAll(address)": {
        "details": "Change the owner of MetaAx token to another"
      },
      "withdrawLP()": {
        "details": "Investor will actually be the onwer of LP tokens."
      }
    },
    "version": 1
  },
  "userdoc": {
    "kind": "user",
    "methods": {},
    "version": 1
  }
}